{
  "contractName": "VotingContract",
  "abi": [
    {
      "inputs": [],
      "stateMutability": "nonpayable",
      "type": "constructor"
    },
    {
      "anonymous": false,
      "inputs": [
        {
          "indexed": true,
          "internalType": "string",
          "name": "abstain",
          "type": "string"
        }
      ],
      "name": "Abstain",
      "type": "event"
    },
    {
      "anonymous": false,
      "inputs": [
        {
          "indexed": true,
          "internalType": "string",
          "name": "reject",
          "type": "string"
        }
      ],
      "name": "Reject",
      "type": "event"
    },
    {
      "anonymous": false,
      "inputs": [
        {
          "indexed": true,
          "internalType": "uint256",
          "name": "candidateId",
          "type": "uint256"
        }
      ],
      "name": "Vote",
      "type": "event"
    },
    {
      "inputs": [
        {
          "internalType": "uint256",
          "name": "",
          "type": "uint256"
        }
      ],
      "name": "candidateDetails",
      "outputs": [
        {
          "internalType": "uint256",
          "name": "candidateId",
          "type": "uint256"
        },
        {
          "internalType": "string",
          "name": "name",
          "type": "string"
        },
        {
          "internalType": "string",
          "name": "details",
          "type": "string"
        },
        {
          "internalType": "uint256",
          "name": "voteCount",
          "type": "uint256"
        }
      ],
      "stateMutability": "view",
      "type": "function"
    },
    {
      "inputs": [
        {
          "internalType": "address",
          "name": "",
          "type": "address"
        }
      ],
      "name": "voterAddresses",
      "outputs": [
        {
          "internalType": "string",
          "name": "name",
          "type": "string"
        },
        {
          "internalType": "string",
          "name": "voterId",
          "type": "string"
        },
        {
          "internalType": "address",
          "name": "voterAddress",
          "type": "address"
        },
        {
          "internalType": "bool",
          "name": "hasVoted",
          "type": "bool"
        }
      ],
      "stateMutability": "view",
      "type": "function"
    },
    {
      "inputs": [
        {
          "internalType": "string",
          "name": "_name",
          "type": "string"
        },
        {
          "internalType": "string",
          "name": "_details",
          "type": "string"
        }
      ],
      "name": "addCandidate",
      "outputs": [],
      "stateMutability": "nonpayable",
      "type": "function"
    },
    {
      "inputs": [
        {
          "internalType": "string",
          "name": "_name",
          "type": "string"
        },
        {
          "internalType": "string",
          "name": "_voterId",
          "type": "string"
        },
        {
          "internalType": "address",
          "name": "_voterAddress",
          "type": "address"
        }
      ],
      "name": "manualAddVoter",
      "outputs": [],
      "stateMutability": "nonpayable",
      "type": "function"
    },
    {
      "inputs": [
        {
          "internalType": "uint256",
          "name": "_candidateId",
          "type": "uint256"
        }
      ],
      "name": "vote",
      "outputs": [],
      "stateMutability": "nonpayable",
      "type": "function"
    },
    {
      "inputs": [],
      "name": "abstain",
      "outputs": [],
      "stateMutability": "nonpayable",
      "type": "function"
    },
    {
      "inputs": [],
      "name": "reject",
      "outputs": [],
      "stateMutability": "nonpayable",
      "type": "function"
    },
    {
      "inputs": [],
      "name": "startElection",
      "outputs": [],
      "stateMutability": "nonpayable",
      "type": "function"
    },
    {
      "inputs": [],
      "name": "endElection",
      "outputs": [],
      "stateMutability": "nonpayable",
      "type": "function"
    },
    {
      "inputs": [],
      "name": "electionStatus",
      "outputs": [
        {
          "internalType": "bool",
          "name": "",
          "type": "bool"
        }
      ],
      "stateMutability": "view",
      "type": "function"
    },
    {
      "inputs": [],
      "name": "electionResults",
      "outputs": [
        {
          "internalType": "uint256",
          "name": "",
          "type": "uint256"
        }
      ],
      "stateMutability": "nonpayable",
      "type": "function"
    },
    {
      "inputs": [],
      "name": "viewWinner",
      "outputs": [
        {
          "internalType": "string",
          "name": "",
          "type": "string"
        }
      ],
      "stateMutability": "nonpayable",
      "type": "function"
    },
    {
      "inputs": [],
      "name": "getVoterCount",
      "outputs": [
        {
          "internalType": "uint256",
          "name": "",
          "type": "uint256"
        }
      ],
      "stateMutability": "view",
      "type": "function"
    },
    {
      "inputs": [],
      "name": "getOwner",
      "outputs": [
        {
          "internalType": "address",
          "name": "",
          "type": "address"
        }
      ],
      "stateMutability": "view",
      "type": "function"
    },
    {
      "inputs": [],
      "name": "getCandidateCount",
      "outputs": [
        {
          "internalType": "uint256",
          "name": "",
          "type": "uint256"
        }
      ],
      "stateMutability": "view",
      "type": "function"
    },
    {
      "inputs": [],
      "name": "totalVotesCasted",
      "outputs": [
        {
          "internalType": "uint256",
          "name": "",
          "type": "uint256"
        }
      ],
      "stateMutability": "view",
      "type": "function"
    },
    {
      "inputs": [],
      "name": "totalAbstain",
      "outputs": [
        {
          "internalType": "uint256",
          "name": "",
          "type": "uint256"
        }
      ],
      "stateMutability": "view",
      "type": "function"
    },
    {
      "inputs": [],
      "name": "totalReject",
      "outputs": [
        {
          "internalType": "uint256",
          "name": "",
          "type": "uint256"
        }
      ],
      "stateMutability": "view",
      "type": "function"
    }
  ],
  "bytecode": "0x6080604052600060015560006002556000600555600060065560006007556040518060400160405280601381526020017f43616e646964617465732072656a656374656400000000000000000000000000815250600890805190602001906200006a929190620000bf565b503480156200007857600080fd5b50336000806101000a81548173ffffffffffffffffffffffffffffffffffffffff021916908373ffffffffffffffffffffffffffffffffffffffff160217905550620001d4565b828054620000cd906200016f565b90600052602060002090601f016020900481019282620000f157600085556200013d565b82601f106200010c57805160ff19168380011785556200013d565b828001600101855582156200013d579182015b828111156200013c5782518255916020019190600101906200011f565b5b5090506200014c919062000150565b5090565b5b808211156200016b57600081600090555060010162000151565b5090565b600060028204905060018216806200018857607f821691505b602082108114156200019f576200019e620001a5565b5b50919050565b7f4e487b7100000000000000000000000000000000000000000000000000000000600052602260045260246000fd5b611ea880620001e46000396000f3fe608060405234801561001057600080fd5b50600436106101165760003560e01c80634dc415de116100a257806362d73eb81161007157806362d73eb81461028b5780637c99279a14610295578063893d20e8146102b3578063eaef0349146102d1578063fe6b946e146102ef57610116565b80634dc415de1461023a57806359f78468146102445780635e98e4c71461024e5780636247e5321461025857610116565b806326541b56116100e957806326541b56146101a657806330a56347146101c2578063392e2403146101e05780633b98d75a146101fe578063463b62751461021c57610116565b80630121b93f1461011b578063037272831461013757806308670f4f1461016a57806311174a2914610188575b600080fd5b6101356004803603810190610130919061175d565b61030b565b005b610151600480360381019061014c9190611649565b61059c565b60405161016194939291906119ee565b60405180910390f35b610172610709565b60405161017f9190611ac1565b60405180910390f35b610190610887565b60405161019d9190611ac1565b60405180910390f35b6101c060048036038101906101bb9190611672565b610891565b005b6101ca6109cc565b6040516101d79190611ac1565b60405180910390f35b6101e86109d6565b6040516101f591906119cc565b60405180910390f35b610206610b32565b6040516102139190611ac1565b60405180910390f35b610224610b3c565b6040516102319190611ac1565b60405180910390f35b610242610b46565b005b61024c610dd5565b005b610256610e80565b005b610272600480360381019061026d919061175d565b61110f565b6040516102829493929190611adc565b60405180910390f35b61029361124f565b005b61029d6112fa565b6040516102aa9190611ac1565b60405180910390f35b6102bb611304565b6040516102c89190611996565b60405180910390f35b6102d961132d565b6040516102e691906119b1565b60405180910390f35b610309600480360381019061030491906116de565b611344565b005b600073ffffffffffffffffffffffffffffffffffffffff16600960003373ffffffffffffffffffffffffffffffffffffffff1673ffffffffffffffffffffffffffffffffffffffff16815260200190815260200160002060020160009054906101000a900473ffffffffffffffffffffffffffffffffffffffff1673ffffffffffffffffffffffffffffffffffffffff1614156103dd576040517f08c379a00000000000000000000000000000000000000000000000000000000081526004016103d490611aa1565b60405180910390fd5b60001515600960003373ffffffffffffffffffffffffffffffffffffffff1673ffffffffffffffffffffffffffffffffffffffff16815260200190815260200160002060020160149054906101000a900460ff16151514610473576040517f08c379a000000000000000000000000000000000000000000000000000000000815260040161046a90611a81565b60405180910390fd5b60011515600360009054906101000a900460ff161515146104c9576040517f08c379a00000000000000000000000000000000000000000000000000000000081526004016104c090611a61565b60405180910390fd5b6001600a600083815260200190815260200160002060030160008282546104f09190611bb7565b925050819055506001600960003373ffffffffffffffffffffffffffffffffffffffff1673ffffffffffffffffffffffffffffffffffffffff16815260200190815260200160002060020160146101000a81548160ff021916908315150217905550807fdcd6a5cd90707bfd61ed2fddae23e88c584cb5b78a0e9989710a59fd84c0a1f960405160405180910390a26001600560008282546105929190611bb7565b9250508190555050565b60096020528060005260406000206000915090508060000180546105bf90611cfc565b80601f01602080910402602001604051908101604052809291908181526020018280546105eb90611cfc565b80156106385780601f1061060d57610100808354040283529160200191610638565b820191906000526020600020905b81548152906001019060200180831161061b57829003601f168201915b50505050509080600101805461064d90611cfc565b80601f016020809104026020016040519081016040528092919081815260200182805461067990611cfc565b80156106c65780601f1061069b576101008083540402835291602001916106c6565b820191906000526020600020905b8154815290600101906020018083116106a957829003601f168201915b5050505050908060020160009054906101000a900473ffffffffffffffffffffffffffffffffffffffff16908060020160149054906101000a900460ff16905084565b6000801515600360009054906101000a900460ff1615151461072a57600080fd5b6000600260075460055461073e9190611c3e565b6107489190611c0d565b6006541115610766576001805461075f9190611bb7565b9050610880565b60005b6001548110156107c557600b600a600083815260200190815260200160002060030154908060018154018082558091505060019003906000526020600020016000909190919091505580806107bd90611d2e565b915050610769565b506000600190505b60015481101561087e57600b8281548110610811577f4e487b7100000000000000000000000000000000000000000000000000000000600052603260045260246000fd5b9060005260206000200154600b8281548110610856577f4e487b7100000000000000000000000000000000000000000000000000000000600052603260045260246000fd5b9060005260206000200154111561086b578091505b808061087690611d2e565b9150506107cd565b505b8091505090565b6000600254905090565b60008054906101000a900473ffffffffffffffffffffffffffffffffffffffff1673ffffffffffffffffffffffffffffffffffffffff163373ffffffffffffffffffffffffffffffffffffffff161461091f576040517f08c379a000000000000000000000000000000000000000000000000000000000815260040161091690611a41565b60405180910390fd5b6000604051806080016040528060015481526020018481526020018381526020016000815250905080600a60006001548152602001908152602001600020600082015181600001556020820151816001019080519060200190610983929190611514565b5060408201518160020190805190602001906109a0929190611514565b506060820151816003015590505060018060008282546109c09190611bb7565b92505081905550505050565b6000600154905090565b606060006109e2610709565b9050600180546109f29190611bb7565b811415610a8c5760088054610a0690611cfc565b80601f0160208091040260200160405190810160405280929190818152602001828054610a3290611cfc565b8015610a7f5780601f10610a5457610100808354040283529160200191610a7f565b820191906000526020600020905b815481529060010190602001808311610a6257829003601f168201915b5050505050915050610b2f565b600a60008281526020019081526020016000206001018054610aad90611cfc565b80601f0160208091040260200160405190810160405280929190818152602001828054610ad990611cfc565b8015610b265780601f10610afb57610100808354040283529160200191610b26565b820191906000526020600020905b815481529060010190602001808311610b0957829003601f168201915b50505050509150505b90565b6000600754905090565b6000600654905090565b600073ffffffffffffffffffffffffffffffffffffffff16600960003373ffffffffffffffffffffffffffffffffffffffff1673ffffffffffffffffffffffffffffffffffffffff16815260200190815260200160002060020160009054906101000a900473ffffffffffffffffffffffffffffffffffffffff1673ffffffffffffffffffffffffffffffffffffffff161415610c18576040517f08c379a0000000000000000000000000000000000000000000000000000000008152600401610c0f90611aa1565b60405180910390fd5b60001515600960003373ffffffffffffffffffffffffffffffffffffffff1673ffffffffffffffffffffffffffffffffffffffff16815260200190815260200160002060020160149054906101000a900460ff16151514610cae576040517f08c379a0000000000000000000000000000000000000000000000000000000008152600401610ca590611a81565b60405180910390fd5b60011515600360009054906101000a900460ff16151514610d04576040517f08c379a0000000000000000000000000000000000000000000000000000000008152600401610cfb90611a61565b60405180910390fd5b600160066000828254610d179190611bb7565b925050819055506001600960003373ffffffffffffffffffffffffffffffffffffffff1673ffffffffffffffffffffffffffffffffffffffff16815260200190815260200160002060020160146101000a81548160ff021916908315150217905550604051610d859061196c565b60405180910390207f5a074a7aea2ae96d3d465d04e81f21320d03a4eb77c3f298647ff4fbdce6787d60405160405180910390a2600160056000828254610dcc9190611bb7565b92505081905550565b60008054906101000a900473ffffffffffffffffffffffffffffffffffffffff1673ffffffffffffffffffffffffffffffffffffffff163373ffffffffffffffffffffffffffffffffffffffff1614610e63576040517f08c379a0000000000000000000000000000000000000000000000000000000008152600401610e5a90611a41565b60405180910390fd5b6000600360006101000a81548160ff021916908315150217905550565b600073ffffffffffffffffffffffffffffffffffffffff16600960003373ffffffffffffffffffffffffffffffffffffffff1673ffffffffffffffffffffffffffffffffffffffff16815260200190815260200160002060020160009054906101000a900473ffffffffffffffffffffffffffffffffffffffff1673ffffffffffffffffffffffffffffffffffffffff161415610f52576040517f08c379a0000000000000000000000000000000000000000000000000000000008152600401610f4990611aa1565b60405180910390fd5b60001515600960003373ffffffffffffffffffffffffffffffffffffffff1673ffffffffffffffffffffffffffffffffffffffff16815260200190815260200160002060020160149054906101000a900460ff16151514610fe8576040517f08c379a0000000000000000000000000000000000000000000000000000000008152600401610fdf90611a81565b60405180910390fd5b60011515600360009054906101000a900460ff1615151461103e576040517f08c379a000000000000000000000000000000000000000000000000000000000815260040161103590611a61565b60405180910390fd5b6001600760008282546110519190611bb7565b925050819055506001600960003373ffffffffffffffffffffffffffffffffffffffff1673ffffffffffffffffffffffffffffffffffffffff16815260200190815260200160002060020160146101000a81548160ff0219169083151502179055506040516110bf90611981565b60405180910390207fb8e3a4804945b9518180ff263fe61444b0743bc3b100f0e2d27af662f1fae07460405160405180910390a26001600560008282546111069190611bb7565b92505081905550565b600a60205280600052604060002060009150905080600001549080600101805461113890611cfc565b80601f016020809104026020016040519081016040528092919081815260200182805461116490611cfc565b80156111b15780601f10611186576101008083540402835291602001916111b1565b820191906000526020600020905b81548152906001019060200180831161119457829003601f168201915b5050505050908060020180546111c690611cfc565b80601f01602080910402602001604051908101604052809291908181526020018280546111f290611cfc565b801561123f5780601f106112145761010080835404028352916020019161123f565b820191906000526020600020905b81548152906001019060200180831161122257829003601f168201915b5050505050908060030154905084565b60008054906101000a900473ffffffffffffffffffffffffffffffffffffffff1673ffffffffffffffffffffffffffffffffffffffff163373ffffffffffffffffffffffffffffffffffffffff16146112dd576040517f08c379a00000000000000000000000000000000000000000000000000000000081526004016112d490611a41565b60405180910390fd5b6001600360006101000a81548160ff021916908315150217905550565b6000600554905090565b60008060009054906101000a900473ffffffffffffffffffffffffffffffffffffffff16905090565b6000600360009054906101000a900460ff16905090565b60008054906101000a900473ffffffffffffffffffffffffffffffffffffffff1673ffffffffffffffffffffffffffffffffffffffff163373ffffffffffffffffffffffffffffffffffffffff16146113d2576040517f08c379a00000000000000000000000000000000000000000000000000000000081526004016113c990611a41565b60405180910390fd5b600060405180608001604052808581526020018481526020018373ffffffffffffffffffffffffffffffffffffffff16815260200160001515815250905080600960008473ffffffffffffffffffffffffffffffffffffffff1673ffffffffffffffffffffffffffffffffffffffff168152602001908152602001600020600082015181600001908051906020019061146c929190611514565b506020820151816001019080519060200190611489929190611514565b5060408201518160020160006101000a81548173ffffffffffffffffffffffffffffffffffffffff021916908373ffffffffffffffffffffffffffffffffffffffff16021790555060608201518160020160146101000a81548160ff0219169083151502179055509050506001600260008282546115079190611bb7565b9250508190555050505050565b82805461152090611cfc565b90600052602060002090601f0160209004810192826115425760008555611589565b82601f1061155b57805160ff1916838001178555611589565b82800160010185558215611589579182015b8281111561158857825182559160200191906001019061156d565b5b509050611596919061159a565b5090565b5b808211156115b357600081600090555060010161159b565b5090565b60006115ca6115c584611b60565b611b2f565b9050828152602081018484840111156115e257600080fd5b6115ed848285611cba565b509392505050565b60008135905061160481611e44565b92915050565b600082601f83011261161b57600080fd5b813561162b8482602086016115b7565b91505092915050565b60008135905061164381611e5b565b92915050565b60006020828403121561165b57600080fd5b6000611669848285016115f5565b91505092915050565b6000806040838503121561168557600080fd5b600083013567ffffffffffffffff81111561169f57600080fd5b6116ab8582860161160a565b925050602083013567ffffffffffffffff8111156116c857600080fd5b6116d48582860161160a565b9150509250929050565b6000806000606084860312156116f357600080fd5b600084013567ffffffffffffffff81111561170d57600080fd5b6117198682870161160a565b935050602084013567ffffffffffffffff81111561173657600080fd5b6117428682870161160a565b9250506040611753868287016115f5565b9150509250925092565b60006020828403121561176f57600080fd5b600061177d84828501611634565b91505092915050565b61178f81611c72565b82525050565b61179e81611c84565b82525050565b60006117af82611b90565b6117b98185611b9b565b93506117c9818560208601611cc9565b6117d281611e33565b840191505092915050565b60006117ea600883611bac565b91507f52656a65637465640000000000000000000000000000000000000000000000006000830152600882019050919050565b600061182a600a83611b9b565b91507f6f6e6c79204f776e6572000000000000000000000000000000000000000000006000830152602082019050919050565b600061186a600983611bac565b91507f4162737461696e656400000000000000000000000000000000000000000000006000830152600982019050919050565b60006118aa600b83611b9b565b91507f6e6f7420737461727465640000000000000000000000000000000000000000006000830152602082019050919050565b60006118ea601183611b9b565b91507f68617320616c726561647920766f7465640000000000000000000000000000006000830152602082019050919050565b600061192a601483611b9b565b91507f766f74657220646f6573206e6f742065786973740000000000000000000000006000830152602082019050919050565b61196681611cb0565b82525050565b6000611977826117dd565b9150819050919050565b600061198c8261185d565b9150819050919050565b60006020820190506119ab6000830184611786565b92915050565b60006020820190506119c66000830184611795565b92915050565b600060208201905081810360008301526119e681846117a4565b905092915050565b60006080820190508181036000830152611a0881876117a4565b90508181036020830152611a1c81866117a4565b9050611a2b6040830185611786565b611a386060830184611795565b95945050505050565b60006020820190508181036000830152611a5a8161181d565b9050919050565b60006020820190508181036000830152611a7a8161189d565b9050919050565b60006020820190508181036000830152611a9a816118dd565b9050919050565b60006020820190508181036000830152611aba8161191d565b9050919050565b6000602082019050611ad6600083018461195d565b92915050565b6000608082019050611af1600083018761195d565b8181036020830152611b0381866117a4565b90508181036040830152611b1781856117a4565b9050611b26606083018461195d565b95945050505050565b6000604051905081810181811067ffffffffffffffff82111715611b5657611b55611e04565b5b8060405250919050565b600067ffffffffffffffff821115611b7b57611b7a611e04565b5b601f19601f8301169050602081019050919050565b600081519050919050565b600082825260208201905092915050565b600081905092915050565b6000611bc282611cb0565b9150611bcd83611cb0565b9250827fffffffffffffffffffffffffffffffffffffffffffffffffffffffffffffffff03821115611c0257611c01611d77565b5b828201905092915050565b6000611c1882611cb0565b9150611c2383611cb0565b925082611c3357611c32611da6565b5b828204905092915050565b6000611c4982611cb0565b9150611c5483611cb0565b925082821015611c6757611c66611d77565b5b828203905092915050565b6000611c7d82611c90565b9050919050565b60008115159050919050565b600073ffffffffffffffffffffffffffffffffffffffff82169050919050565b6000819050919050565b82818337600083830152505050565b60005b83811015611ce7578082015181840152602081019050611ccc565b83811115611cf6576000848401525b50505050565b60006002820490506001821680611d1457607f821691505b60208210811415611d2857611d27611dd5565b5b50919050565b6000611d3982611cb0565b91507fffffffffffffffffffffffffffffffffffffffffffffffffffffffffffffffff821415611d6c57611d6b611d77565b5b600182019050919050565b7f4e487b7100000000000000000000000000000000000000000000000000000000600052601160045260246000fd5b7f4e487b7100000000000000000000000000000000000000000000000000000000600052601260045260246000fd5b7f4e487b7100000000000000000000000000000000000000000000000000000000600052602260045260246000fd5b7f4e487b7100000000000000000000000000000000000000000000000000000000600052604160045260246000fd5b6000601f19601f8301169050919050565b611e4d81611c72565b8114611e5857600080fd5b50565b611e6481611cb0565b8114611e6f57600080fd5b5056fea2646970667358221220e5d1c6ce28b1a2cb72f79b40af1568c759cbab916ab3a29b99294d39107a22d864736f6c63430008000033",
  "immutableReferences": {},
  "source": "pragma solidity ^0.8.0;\r\n\r\n// SPDX-License-Identifier: MIT\r\n\r\ncontract VotingContract {\r\n    address owner;\r\n\r\n    uint256 candidateCount = 0;\r\n\r\n    uint256 voterCount = 0;\r\n\r\n    bool start;\r\n\r\n    string pollName;\r\n\r\n    // Counter for total votes\r\n    uint256 votesCasted = 0;\r\n\r\n    // Counter for rejects\r\n    uint256 rejectCount = 0;\r\n\r\n    // Counter for abstains\r\n    uint256 abstainCount = 0;\r\n\r\n    // rejected string\r\n    string rejected = \"Candidates rejected\";\r\n\r\n    // Struct of a voter\r\n    struct Voter {\r\n        string name;\r\n        string voterId; // Roll number or any other number\r\n        address voterAddress; // Wallet address\r\n        bool hasVoted;\r\n    }\r\n\r\n    mapping(address => Voter) public voterAddresses;\r\n\r\n    // Struct of a candidate\r\n    struct Candidate {\r\n        uint256 candidateId;\r\n        string name;\r\n        string details; // manifesto or any other description\r\n        uint256 voteCount; // the number of votes he got\r\n    }\r\n\r\n    mapping(uint256 => Candidate) public candidateDetails;\r\n\r\n    uint256[] private candidateVote;\r\n\r\n    // Modifier for letting only the owner to add candidates\r\n    modifier onlyOwner() {\r\n        require(msg.sender == owner, \"only Owner\");\r\n        _;\r\n    }\r\n\r\n     constructor() public {\r\n        owner = msg.sender;\r\n    }\r\n\r\n\r\n    // function to add a new candidate\r\n    function addCandidate(string memory _name, string memory _details)\r\n        public\r\n        onlyOwner\r\n    {\r\n        Candidate memory newCandidate = Candidate({\r\n            candidateId: candidateCount,\r\n            name: _name,\r\n            details: _details,\r\n            voteCount: 0\r\n        });\r\n\r\n        candidateDetails[candidateCount] = newCandidate;\r\n\r\n        candidateCount += 1;\r\n    }\r\n\r\n    // function to add voter\r\n    // only suitable for a local blockchain\r\n    function manualAddVoter(\r\n        string memory _name,\r\n        string memory _voterId,\r\n        address _voterAddress\r\n    ) public onlyOwner {\r\n        Voter memory newVoter = Voter({\r\n            name: _name,\r\n            voterId: _voterId,\r\n            voterAddress: _voterAddress,\r\n            hasVoted: false\r\n        });\r\n\r\n        voterAddresses[_voterAddress] = newVoter;\r\n\r\n        voterCount += 1;\r\n    }\r\n\r\n    // A voting 'event' for logging the vote of the voter\r\n    event Vote(uint256 indexed candidateId);\r\n\r\n    // the actual voting\r\n    // Take uint256 _candidateId as an array, where each index of the array would point to each post that is being put up\r\n    // This would mean that candidateId in itself has to be a two dimensional array (of some type)\r\n    // This way we can also build an array of some sort (obviously not manually) which will assign\r\n    // each voter to the number and specific posts for which he/she can vote.\r\n    // This will also create fluidity for the number of posts, i.e., we can have n number of posts\r\n    // (Haven't thought about gas price yet)\r\n    function vote(uint256 _candidateId) public {\r\n        require(\r\n            voterAddresses[msg.sender].voterAddress != address(0),\r\n            \"voter does not exist\"\r\n        );\r\n        require(\r\n            voterAddresses[msg.sender].hasVoted == false,\r\n            \"has already voted\"\r\n        );\r\n        require(start == true, \"not started\");\r\n        candidateDetails[_candidateId].voteCount += 1;\r\n        voterAddresses[msg.sender].hasVoted = true;\r\n        emit Vote(_candidateId);\r\n        votesCasted += 1;\r\n    }\r\n\r\n    // event for emitting abstain\r\n    event Abstain(string indexed abstain);\r\n\r\n    // event for emitting reject\r\n    event Reject(string indexed reject);\r\n\r\n    // function for abstain\r\n    function abstain() public {\r\n        require(\r\n            voterAddresses[msg.sender].voterAddress != address(0),\r\n            \"voter does not exist\"\r\n        );\r\n        require(\r\n            voterAddresses[msg.sender].hasVoted == false,\r\n            \"has already voted\"\r\n        );\r\n        require(start == true, \"not started\");\r\n        abstainCount += 1;\r\n        voterAddresses[msg.sender].hasVoted = true;\r\n        emit Abstain(\"Abstained\");\r\n        votesCasted += 1;\r\n    }\r\n\r\n    // function for reject\r\n    function reject() public {\r\n        require(\r\n            voterAddresses[msg.sender].voterAddress != address(0),\r\n            \"voter does not exist\"\r\n        );\r\n        require(\r\n            voterAddresses[msg.sender].hasVoted == false,\r\n            \"has already voted\"\r\n        );\r\n        require(start == true, \"not started\");\r\n        rejectCount += 1;\r\n        voterAddresses[msg.sender].hasVoted = true;\r\n        emit Reject(\"Rejected\");\r\n        votesCasted += 1;\r\n    }\r\n\r\n    //voting function for meta transaction\r\n    // function voteMeta(\r\n    //     uint256 _candidateId,\r\n    //     address userAddress,\r\n    //     bytes32 r,\r\n    //     bytes32 s,\r\n    //     uint8 v\r\n    // ) public {\r\n    //     MetaTransaction memory metaTx = MetaTransaction({\r\n    //         nonce: nonces[userAddress],\r\n    //         from: userAddress\r\n    //     });\r\n\r\n    //     bytes32 digest = keccak256(\r\n    //         abi.encodePacked(\r\n    //             \"\\x19\\x01\",\r\n    //             DOMAIN_SEPARATOR,\r\n    //             keccak256(\r\n    //                 abi.encode(\r\n    //                     META_TRANSACTION_TYPEHASH,\r\n    //                     metaTx.nonce,\r\n    //                     metaTx.from\r\n    //                 )\r\n    //             )\r\n    //         )\r\n    //     );\r\n\r\n    //     require(userAddress != address(0), \"invalid-address-0\");\r\n    //     require(\r\n    //         userAddress == ecrecover(digest, v, r, s),\r\n    //         \"invalid-signatures\"\r\n    //     );\r\n    //     require(voterAddresses[userAddress].hasVoted == false);\r\n    //     require(start == true);\r\n    //     candidateDetails[_candidateId].voteCount += 1;\r\n    //     voterAddresses[userAddress].hasVoted = true;\r\n    //     nonces[userAddress]++;\r\n    // }\r\n\r\n    // onlyOwner function for starting the election\r\n    function startElection() public onlyOwner {\r\n        start = true;\r\n    }\r\n\r\n    // onlyOwner function to end election\r\n    function endElection() public onlyOwner {\r\n        start = false;\r\n    }\r\n\r\n    // public function to view election status (use this in dashboard)\r\n    function electionStatus() public view returns (bool) {\r\n        return (start);\r\n    }\r\n\r\n    // event for emitting election results\r\n    // event Results(uint256 indexed candidateId);\r\n\r\n    // function to view election results\r\n    function electionResults() public returns (uint256) {\r\n        require(start == false);\r\n        uint256 winner = 0;\r\n        if (rejectCount > (votesCasted - abstainCount) / 2) {\r\n            winner = candidateCount + 1;\r\n        } else {\r\n            for (uint256 i = 0; i < candidateCount; i++) {\r\n                candidateVote.push(candidateDetails[i].voteCount);\r\n            }\r\n            for (uint256 i = 1; i < candidateCount; i++) {\r\n                if (candidateVote[i] > candidateVote[winner]) {\r\n                    winner = i;\r\n                }\r\n            }\r\n        }\r\n        return winner;\r\n        // emit Results(winner);\r\n    }\r\n\r\n    // event for emitting winner\r\n    // event Winner(string indexed winner);\r\n\r\n    function viewWinner() public returns (string memory) {\r\n        uint256 winner = electionResults();\r\n        if (winner == candidateCount + 1) {\r\n            return rejected;\r\n            // emit Winner(rejected);\r\n        } else {\r\n            return candidateDetails[winner].name;\r\n            // emit Winner(candidateDetails[winner].name);\r\n        }\r\n    }\r\n\r\n    // get total number of voters\r\n    function getVoterCount() public view returns (uint256) {\r\n        return voterCount;\r\n    }\r\n\r\n    function getOwner() public view returns (address) {\r\n        return owner;\r\n    }\r\n\r\n    function getCandidateCount() public view returns (uint256) {\r\n        return candidateCount;\r\n    }\r\n\r\n    function totalVotesCasted() public view  returns (uint256) {\r\n        return votesCasted;\r\n    }\r\n\r\n    function totalAbstain() public view returns (uint256) {\r\n        return abstainCount;\r\n    }\r\n\r\n    function totalReject() public view returns (uint256) {\r\n        return rejectCount;\r\n    }\r\n}\r\n",
  "sourcePath": "D:\\blockchain-voting\\contracts\\VotingContract.sol",
  "compiler": {
    "name": "solc",
    "version": "0.8.0+commit.c7dfd78e.Emscripten.clang"
  },
  "schemaVersion": "3.4.6",
  "updatedAt": "2022-07-13T19:01:59.544Z",
  "devdoc": {
    "kind": "dev",
    "methods": {},
    "version": 1
  },
  "userdoc": {
    "kind": "user",
    "methods": {},
    "version": 1
  }
}